:020000040800F2
:1000000000280020FD0D0008AD0C0008B30C00080E
:10001000B90C0008BF0C0008C50C00080000000067
:10002000000000000000000000000000CB0C0008F1
:10003000D70C000800000000E30C0008EF0C0008DB
:10004000450E0008450E0008450E0008450E000844
:10005000450E0008450E0008450E0008450E000834
:10006000450E0008450E0008450E0008450E000824
:10007000450E0008450E0008450E0008450E000814
:10008000450E0008450E0008450E0008450E000804
:10009000450E0008450E0008450E0008450E0008F4
:1000A000450E0008450E0008450E0008450E0008E4
:1000B000FD0C0008450E000800000000450E000879
:1000C000450E00080000000000000000450E00087A
:1000D00000000000450E0008450E0008000000006A
:1000E000450E0008450E0008450E000800000000FF
:1000F0000000000000000000000000000000000000
:0C01000000000000000000005FF808F1A3
:10010C0010B5054C237833B9044B13B10448AFF345
:10011C0000800123237010BD34000020000000007B
:10012C000425000808B5034B1BB103490348AFF382
:10013C00008008BD000000003800002004250008E5
:10014C0080B500AF00F006F800F090F800F0E6F88B
:10015C0000BF80BD80B400AF3E4B1B78002B33D169
:10016C003D4B5B7803F00203DBB2002B2CD0394BF8
:10017C0001221A70394B1B78082B06D8374B1B7889
:10018C000133DAB2354B1A7022E0354B1B78082B51
:10019C0009D8334B1B780133DAB2314B1A702F4B21
:1001AC0000221A7014E02F4B1B78082B10D82D4B03
:1001BC001B780133DAB22B4B1A70284B00221A70C1
:1001CC00274B00221A7003E0224B00221A7000E029
:1001DC0000BF254B1B78002B33D11F4B9B7803F0B2
:1001EC000203DBB2002B2CD01F4B01221A701B4BCD
:1001FC001B78002B06D0194B1B78013BDAB2174B3E
:10020C001A7022E0164B1B78002B09D0144B1B786C
:10021C00013BDAB2124B1A70104B09221A7014E01F
:10022C00104B1B78002B10D00E4B1B78013BDAB215
:10023C000C4B1A70094B09221A70094B09221A70BF
:10024C0003E0094B00221A7000E000BF00BFBD465E
:10025C0080BC704753000020640000205000002038
:10026C0051000020520000205400002080B400AF48
:10027C00264B1B78002B15D1254B1B7863F07F0385
:10028C00DAB2244B1A70244B1B7803F07F03DAB2DA
:10029C00204B1A701F4B1B7803F07F03DAB21D4BF7
:1002AC001A702EE0194B1B78012B15D1184B1B78AB
:1002BC0003F07F03DAB2174B1A70174B1B7863F0FD
:1002CC007F03DAB2134B1A70124B1B7803F07F03C7
:1002DC00DAB2104B1A7014E00D4B1B7803F07F034D
:1002EC00DAB20C4B1A700C4B1B7803F07F03DAB2AA
:1002FC00084B1A70074B1B7863F07F03DAB2054B7F
:10030C001A7000BFBD4680BC704700BF550000206E
:10031C00600000205E0000205F00002080B400AF71
:10032C000C4B1B781A460C4B9A5C0C4B1A700C4BF2
:10033C001B781A46084B9A5C0A4B1A700A4B1B78AE
:10034C001A46054B9A5C094B1A7000BFBD4680BC1F
:10035C00704700BF500000201C2500085E000020E4
:10036C00510000205F00002052000020600000209F
:10037C0080B400AF264B1B78002B15D1254B1B7876
:10038C00002B0DD1244B1B7803F00203DBB2002BA6
:10039C0006D0204B01221A701D4B01221A7033E03B
:1003AC001C4B00221A702FE0194B1B78012B15D116
:1003BC00184B1B78002B0DD1174B1B7803F0020345
:1003CC00DBB2002B06D0134B01221A70104B022209
:1003DC001A7019E00F4B00221A7015E00D4B1B78A8
:1003EC00002B0DD10C4B1B7803F00203DBB2002B5E
:1003FC0006D0084B01221A70054B00221A7003E03C
:10040C00044B00221A70FFE700BFBD4680BC70474A
:10041C0055000020560000206400002080B500AF7D
:10042C00204B1B78002B1ED11F4BDB7803F00203F3
:10043C00DBB2002B17D01B4B01221A701B4B1B7805
:10044C00002B13D11A4B1B78184600F037F80346D3
:10045C00184A1360154B01221A700122012116480B
:10046C0000F0EFFF02E00F4B00221A700F4B1B78CD
:10047C00012B09D10F4B1B68002B05D00D4B1B68B2
:10048C00013B0C4A13600BE00A4B1B68002B07D195
:10049C0000220121084800F0D4FF044B00221A70FE
:1004AC0000BF80BD5C000020640000205D000020C7
:1004BC005500002058000020000C014080B485B08D
:1004CC0000AF0346FB710023FB720023BB720023B9
:1004DC007B720023FB60254B1B78FB72244B1B7833
:1004EC00BB72244B1B787B72FB79002B0DD1F97AF4
:1004FC007B7A642202FB03F0BA7A13469B00134406
:10050C005B0003440B44FB6029E0FB79012B13D106
:10051C00F97A7B7A642202FB03F0BA7A13469B00C9
:10052C0013445B0003440B44FB60FB684FF47A728A
:10053C0002FB03F3FB6012E0F97A7B7A642202FB84
:10054C0003F0BA7A13469B0013445B0003440B443C
:10055C00FB60FB6842F2107202FB03F3FB60FB686A
:10056C0018461437BD4680BC704700BF50000020B1
:10057C00510000205200002080B500AF114B1B78B9
:10058C00022B02D90F4B00221A700E4B1B78022B38
:10059C000CD0022B0DDC002B02D0012B03D008E079
:1005AC0000F012F805E000F031F802E000F050F82D
:1005BC0000BF044B1B780133DAB2024B1A7000BF38
:1005CC0080BD00BF6100002080B500AF01224FF458
:1005DC0000410B4800F035FF00224FF480410848E1
:1005EC0000F02FFF00224FF40041064800F029FFD5
:1005FC00054B1B78184600F04DF800BF80BD00BFBE
:10060C0000100140000801405E00002080B500AFE2
:10061C0000224FF400410B4800F013FF01224FF46D
:10062C008041084800F00DFF00224FF400410648BD
:10063C0000F007FF054B1B78184600F02BF800BFA5
:10064C0080BD00BF00100140000801405F00002089
:10065C0080B500AF00224FF400410B4800F0F1FED2
:10066C0000224FF48041084800F0EBFE01224FF4C9
:10067C000041064800F0E5FE054B1B78184600F0DB
:10068C0009F800BF80BD00BF001001400008014008
:10069C006000002080B582B000AF0346FB71FB798F
:1006AC0003F00103002B06D000224FF4807149485F
:1006BC0000F0C7FE05E001224FF48071454800F0C0
:1006CC00C0FEFB795B08DBB203F00103002B06D004
:1006DC0000224FF40041404800F0B3FE05E0012237
:1006EC004FF400413C4800F0ACFEFB799B08DBB2B8
:1006FC0003F00103002B06D000224FF48041364852
:10070C0000F09FFE05E001224FF48041324800F0DA
:10071C0098FEFB79DB08DBB203F00103002B06D05B
:10072C0000224FF480512C4800F08BFE05E0012292
:10073C004FF48051284800F084FEFB791B09DBB292
:10074C0003F00103002B05D000222021224800F0E9
:10075C0078FE04E0012220211F4800F072FEFB7994
:10076C005B09DBB203F00103002B05D00022102142
:10077C00194800F066FE04E001221021164800F032
:10078C0060FEFB799B09DBB203F00103002B05D063
:10079C0000220821104800F054FE04E00122082138
:1007AC000D4800F04EFEFB79DB09DBB203F00103D0
:1007BC00002B05D000220421074800F042FE04E083
:1007CC0001220421044800F03CFE00BF0837BD465E
:1007DC0080BD00BF00080140000C014080B500AF97
:1007EC0001211A4800F016FE034603F00103D9B2AA
:1007FC00174A137861F3000313700221134800F0B9
:10080C0009FE034603F00103D9B2114A537861F390
:10081C000003537010210D4800F0FCFD034603F05B
:10082C000103D9B20A4A937861F300039370012152
:10083C00084800F0EFFD034603F00103D9B2044A67
:10084C00D37861F30003D37000BF80BD0008014072
:10085C0064000020000C014080B483B000AF002382
:10086C00FB710023FB713DE0FB79234AD35CC3F39E
:10087C000003DBB2002B0CD1FA791F498B5C6FF3B0
:10088C0086038B54FA791C498B5C6FF300038B54F1
:10089C0025E0FB79184AD35CC3F30003DBB2012BD0
:1008AC0017D1FB79144AD35CC3F38403DBB2022B5C
:1008BC000FD9FB79104AD25CC2F38402D2B2013256
:1008CC0002F01F02D0B20C49CA5C60F38602CA5413
:1008DC0005E0FA7908498B5C43F001038B54FB79F2
:1008EC000133FB71FB79032BBED900BF00BF0C3762
:1008FC00BD4680BC704700BF6400002080B500AFCF
:10090C00FFF78CFD00BF80BD80B500AFFFF734FE54
:10091C0000BF80BD80B500AFFFF760FF00BF80BD9A
:10092C0080B500AFFFF798FFFFF722FDFFF708FC3B
:10093C0000BF80BD80B500AF024800F0DCFD00BFF9
:10094C0080BD00BF6C00002080B400AF00BFBD466E
:10095C0080BC704780B400AF034B01221A7000BFFB
:10096C00BD4680BC704700BF6800002080B582B0D7
:10097C0000AF1B4B1B78DBB2012B2AD1194B1B7818
:10098C000133DAB2174B1A70154B00221A70002380
:10099C00FB711AE0FB79144ADB0013449B7819466F
:1009AC00104B1B781846FB790F4ADB0013445B781D
:1009BC00013B0340994205D1FB790B4ADB00134400
:1009CC005B689847FB790133FB71FB79042BE1D908
:1009DC0001E0FFF7B9FF00BF0837BD4680BD00BF7F
:1009EC0068000020690000200000002080B588B05D
:1009FC0000AF07F1100300221A605A609A60DA60A7
:100A0C00454B9B69444A43F010039361424B9B69ED
:100A1C0003F01003FB60FB683F4B9B693E4A43F0BD
:100A2C00200393613C4B9B6903F02003BB60BB68C4
:100A3C00394B9B69384A43F004039361364B9B69ED
:100A4C0003F004037B607B68334B9B69324A43F0B1
:100A5C0008039361304B9B6903F008033B603B68D0
:100A6C0000224FF440412D4800F0EBFC00224DF2E7
:100A7C003E012B4800F0E5FC00224FF401412948CF
:100A8C0000F0DFFC4FF440433B6101237B6100230A
:100A9C00BB610223FB6107F1100319461F4800F0EC
:100AAC003DFB13233B6100237B610123BB6107F1F9
:100ABC00100319461B4800F031FB01233B61002356
:100ACC007B610123BB6107F110031946144800F048
:100ADC0025FB4DF23E033B6101237B610023BB618F
:100AEC000223FB6107F1100319460D4800F016FBB9
:100AFC004FF401433B6101237B610023BB61022363
:100B0C00FB6107F110031946064800F007FB00BF14
:100B1C002037BD4680BD00BF0010024000100140D0
:100B2C00000C01400008014080B500AF094B0A4A97
:100B3C001A60084B04225A60064B40F271229A60EC
:100B4C00044800F096FC0346002B01D000F070F82E
:100B5C0000BF80BD6C0000200030004080B500AFAD
:100B6C0000F06CF900F00EF8FFF740FFFFF7DCFF28
:100B7C0000F0CEF8024801F0FBF8FFF7F7FEFCE7B7
:100B8C007800002080B590B000AF07F11803282240
:100B9C000021184601F0A8FC3B1D00221A605A6087
:100BAC009A60DA601A610923BB614FF48033FB61F0
:100BBC0000233B620123BB6201233B6302237B6363
:100BCC004FF48033BB634FF4E013FB6307F118035E
:100BDC00184600F09FFC0346002B01D000F028F8CB
:100BEC000F237B600223BB600023FB604FF4806308
:100BFC003B6100237B613B1D0221184600F00CFF7A
:100C0C000346002B01D000F013F800BF4037BD465F
:100C1C0080BD80B582B000AF78607B681B68B3F193
:100C2C00804F01D1FFF796FE00BF0837BD4680BD4F
:100C3C0080B400AF72B600BFFEE7000080B485B090
:100C4C0000AF154B9B69144A43F001039361124B9F
:100C5C009B6903F00103BB60BB680F4BDB690E4A59
:100C6C0043F08053D3610C4BDB6903F080537B6002
:100C7C007B680A4B5B68FB60FB6823F0E063FB60FE
:100C8C00FB6843F00073FB60044AFB68536000BFD1
:100C9C001437BD4680BC7047001002400000014074
:100CAC0080B400AFFEE780B400AFFEE780B400AFC5
:100CBC00FEE780B400AFFEE780B400AFFEE780B47F
:100CCC0000AF00BFBD4680BC704780B400AF00BF12
:100CDC00BD4680BC704780B400AF00BFBD4680BC31
:100CEC00704780B500AF00F0EFF800BF80BD00008A
:100CFC0080B500AF024801F087F800BF80BD00BF8F
:100D0C007800002080B400AF00BFBD4680BC7047A7
:100D1C0080B586B000AF07F1080300221A605A6054
:100D2C009A60DA603B4600221A605A601D4B4FF005
:100D3C0080421A601B4B47225A601A4B00229A6061
:100D4C00184B40F2E732DA60164B00221A61154B51
:100D5C0080229A61134800F0BBFF0346002B01D0A0
:100D6C00FFF766FF4FF48053BB6007F10803194689
:100D7C000C4801F051F90346002B01D0FFF758FF46
:100D8C0000233B6000237B603B461946054801F07D
:100D9C001DFB0346002B01D0FFF74AFF00BF18379D
:100DAC00BD4680BD7800002080B584B000AF78606F
:100DBC007B681B68B3F1804F13D10C4BDB690B4A7A
:100DCC0043F00103D361094BDB6903F00103FB60C2
:100DDC00FB68002200211C2000F069F91C2000F0A7
:100DEC0082F900BF1037BD4680BD00BF0010024025
:100DFC00FFF788FF0B480C490C4A002302E0D4583B
:100E0C00C4500433C4188C42F9D3094A094C00234A
:100E1C0001E013600432A242FBD301F041FBFFF767
:100E2C009DFE70470000002034000020542500086F
:100E3C0034000020C4000020FEE7000080B500AFA5
:100E4C00084B1B68074A43F010031360032000F0A3
:100E5C0023F90F2000F008F8FFF7F0FE00231846E6
:100E6C0080BD00BF0020024080B582B000AF78602A
:100E7C00124B1A68124B1B7819464FF47A73B3FB5A
:100E8C00F1F3B2FBF3F3184600F03BF90346002BE9
:100E9C0001D001230EE07B680F2B0AD80022796861
:100EAC004FF0FF3000F003F9064A7B681360002313
:100EBC0000E0012318460837BD4680BD28000020FD
:100ECC00300000202C00002080B400AF054B1B78B4
:100EDC001A46054B1B681344034A136000BFBD46FA
:100EEC0080BC704730000020C000002080B400AFF0
:100EFC00024B1B681846BD4680BC7047C0000020E2
:100F0C0080B485B000AF78607B6803F00703FB60AA
:100F1C000C4BDB68BB60BA684FF6FF031340BB6039
:100F2C00FB681A02BB68134343F0BF6343F40033FE
:100F3C00BB60044ABB68D36000BF1437BD4680BC9D
:100F4C00704700BF00ED00E080B400AF044BDB68DD
:100F5C001B0A03F007031846BD4680BC704700BF50
:100F6C0000ED00E080B483B000AF0346FB7197F94D
:100F7C000730002B0BDBFB7903F01F02064997F9B6
:100F8C0007305B09012000FA02F241F8232000BF70
:100F9C000C37BD4680BC704700E100E080B483B0E4
:100FAC0000AF03463960FB7197F90730002B0ADB61
:100FBC003B68DAB20C4997F907301201D2B20B44F4
:100FCC0083F800230AE03B68DAB20849FB7903F0A6
:100FDC000F03043B1201D2B20B441A7600BF0C373C
:100FEC00BD4680BC704700BF00E100E000ED00E0B2
:100FFC0080B489B000AFF860B9607A60FB6803F028
:10100C000703FB61FB69C3F10703042B28BF04230F
:10101C00BB61FB690433062B02D9FB69033B00E07F
:10102C0000237B614FF0FF32BB6902FA03F3DA4312
:10103C00BB681A407B699A404FF0FF317B6901FA1B
:10104C0003F3D9437B680B40134318462437BD4642
:10105C0080BC704780B582B000AF78607B68013B84
:10106C00B3F1807F01D301230FE00A4A7B68013B77
:10107C0053600F214FF0FF30FFF790FF054B00221C
:10108C009A60044B07221A60002318460837BD46A5
:10109C0080BD00BF10E000E080B582B000AF78608A
:1010AC007868FFF72DFF00BF0837BD4680BD80B5BF
:1010BC0086B000AF0346B9607A60FB7300237B6196
:1010CC00FFF742FF78617A68B9687869FFF790FF9B
:1010DC00024697F90F3011461846FFF75FFF00BF25
:1010EC001837BD4680BD80B582B000AF0346FB719A
:1010FC0097F907301846FFF735FF00BF0837BD4694
:10110C0080BD80B582B000AF78607868FFF7A2FF31
:10111C00034618460837BD4680BD000080B48BB02E
:10112C0000AF7860396000237B6200233B6261E191
:10113C0001227B6A02FA03F3FB613B681B68FA69C4
:10114C001340BB61BA69FB699A4240F050813B681D
:10115C005B68974A93425ED0954A934275D8954AFC
:10116C00934258D0934A93426FD8934A934252D0A9
:10117C00914A934269D8914A93424CD08F4A9342F8
:10118C0063D88F4A934246D08D4A93425DD8122B36
:10119C002AD8122B59D801A252F823F02312000896
:1011AC00FD1100080F120008511200085712000818
:1011BC00571200085712000857120008571200085F
:1011CC00571200085712000857120008571200084F
:1011DC00571200085712000857120008571200083F
:1011EC000512000819120008764A934213D02CE01D
:1011FC003B68DB683B6229E03B68DB6804333B629D
:10120C0024E03B68DB6808333B621FE03B68DB682B
:10121C000C333B621AE03B689B68002B02D1042321
:10122C003B6213E03B689B68012B05D108233B62B2
:10123C007B68FA691A6109E008233B627B68FA69EA
:10124C005A6103E000233B6200E000BFBB69FF2B47
:10125C0001D87B6801E07B6804337B61BB69FF2BA1
:10126C0002D87B6A9B0002E07B6A083B9B003B61D7
:10127C007B691A680F213B6901FA03F3DB431A40BF
:10128C00396A3B6901FA03F31A437B691A603B68BC
:10129C005B6803F08053002B00F0A9804A4B9B69DC
:1012AC00494A43F001039361474B9B6903F00103E7
:1012BC00BB60BB68454A7B6A9B08023352F82330FB
:1012CC00FB607B6A03F003039B000F2202FA03F31B
:1012DC00DB43FA681340FB607B683D4A93420DD0B8
:1012EC007B683C4A934207D07B683B4A934201D1CE
:1012FC00022304E0032302E0012300E000237A6AC6
:10130C0002F0030292009340FA681343FB602F49EA
:10131C007B6A9B080233FA6841F823203B685B68C0
:10132C0003F48013002B06D02C4B9A682B49BB6915
:10133C0013438B6006E0294B9A68BB69DB43274952
:10134C0013408B603B685B6803F40013002B06D0E2
:10135C00224BDA682149BB691343CB6006E01F4B73
:10136C00DA68BB69DB431D491340CB603B685B68A3
:10137C0003F40033002B06D0184B5A681749BB698D
:10138C0013434B6006E0154B5A68BB69DB431349AA
:10139C0013404B603B685B6803F48033002B1FD019
:1013AC000E4B1A680D49BB6913430B601FE000BF5D
:1013BC00000032100000311000002210000021103B
:1013CC00000012100000111000100240000001403B
:1013DC0000080140000C01400010014000040140D5
:1013EC000B4B1A68BB69DB43094913400B607B6AE2
:1013FC0001337B623B681A687B6A22FA03F3002B89
:10140C007FF496AE00BF00BF2C37BD4680BC704742
:10141C000004014080B485B000AF78600B467B803F
:10142C007B689A687B881340002B02D00123FB73E6
:10143C0001E00023FB73FB7B18461437BD4680BCD0
:10144C00704780B483B000AF78600B467B80134646
:10145C007B707B78002B03D07A887B681A6103E061
:10146C007B881A047B681A6100BF0C37BD4680BCB0
:10147C00704780B584B000AF78607B68002B01D1D9
:10148C00012334E07B681B684CF6CC421A607B6805
:10149C001B6845F255521A607B681B687A68526863
:1014AC005A607B681B687A6892689A60FFF71EFD29
:1014BC00F8600FE0FFF71AFD0246FB68D31A272BE2
:1014CC0008D97B681B68DB6803F00303002B01D091
:1014DC0003230CE07B681B68DB6803F00303002B21
:1014EC00E8D17B681B684AF6AA221A6000231846CA
:1014FC001037BD4680BD80B483B000AF78607B6888
:10150C001B684AF6AA221A60002318460C37BD46FF
:10151C0080BC704780B586B000AF78607B68002BCC
:10152C0001D1012372E27B681B6803F00103002BDD
:10153C0000F08780924B5B6803F00C03042B0CD0FB
:10154C008F4B5B6803F00C03082B12D18C4B5B6840
:10155C0003F48033B3F5803F0BD1894B1B6803F444
:10156C000033002B6CD07B685B68002B68D10123A7
:10157C004CE27B685B68B3F5803F06D1804B1B68FF
:10158C007F4A43F4803313602EE07B685B68002B4A
:10159C000CD17B4B1B687A4A23F480331360784B55
:1015AC001B68774A23F4802313601DE07B685B681B
:1015BC00B3F5A02F0CD1724B1B68714A43F48023F6
:1015CC0013606F4B1B686E4A43F4803313600BE05F
:1015DC006B4B1B686A4A23F480331360684B1B689F
:1015EC00674A23F4802313607B685B68002B13D05D
:1015FC00FFF77CFC386108E0FFF778FC02463B699A
:10160C00D31A642B01D9032300E25D4B1B6803F44E
:10161C000033002BF0D014E0FFF768FC386108E0D1
:10162C00FFF764FC02463B69D31A642B01D90323F0
:10163C00ECE1534B1B6803F40033002BF0D100E0BA
:10164C0000BF7B681B6803F00203002B63D04C4B7C
:10165C005B6803F00C03002B0BD0494B5B6803F069
:10166C000C03082B1CD1464B5B6803F48033002B16
:10167C0016D1434B1B6803F00203002B05D07B688B
:10168C001B69012B01D00123C0E13D4B1B6823F0EA
:10169C00F8027B685B69DB00394913430B603AE065
:1016AC007B681B69002B20D0364B01221A60FFF798
:1016BC001DFC386108E0FFF719FC02463B69D31AA0
:1016CC00022B01D90323A1E12D4B1B6803F002036C
:1016DC00002BF0D02A4B1B6823F0F8027B685B6967
:1016EC00DB00274913430B6015E0264B00221A60E0
:1016FC00FFF7FCFB386108E0FFF7F8FB02463B699B
:10170C00D31A022B01D9032380E11D4B1B6803F074
:10171C000203002BF0D17B681B6803F00803002B3D
:10172C003AD07B689B69002B19D0174B01221A60A9
:10173C00FFF7DCFB386108E0FFF7D8FB02463B699A
:10174C00D31A022B01D9032360E10D4B5B6A03F022
:10175C000203002BF0D0012000F09CFA1CE00A4B95
:10176C0000221A60FFF7C2FB38610FE0FFF7BEFBE7
:10177C0002463B69D31A022B08D9032346E100BF6A
:10178C00001002400000424280044242924B5B6ACD
:10179C0003F00203002BE9D17B681B6803F0040300
:1017AC00002B00F0A6800023FB758B4BDB6903F04C
:1017BC008053002B0DD1884BDB69874A43F0805353
:1017CC00D361854BDB6903F08053BB60BB6801239D
:1017DC00FB75824B1B6803F48073002B18D17F4B75
:1017EC001B687E4A43F480731360FFF77FFB3861FC
:1017FC0008E0FFF77BFB02463B69D31A642B01D947
:10180C00032303E1754B1B6803F48073002BF0D0AA
:10181C007B68DB68012B06D16F4B1B6A6E4A43F069
:10182C00010313622DE07B68DB68002B0CD16A4B43
:10183C001B6A694A23F001031362674B1B6A664AF1
:10184C0023F0040313621CE07B68DB68052B0CD1CE
:10185C00614B1B6A604A43F0040313625E4B1B6AC4
:10186C005D4A43F0010313620BE05B4B1B6A5A4A5F
:10187C0023F001031362584B1B6A574A23F00403ED
:10188C0013627B68DB68002B15D0FFF72FFB3861E8
:10189C000AE0FFF72BFB02463B69D31A41F2883270
:1018AC00934201D90323B1E04B4B1B6A03F00203B3
:1018BC00002BEED014E0FFF719FB38610AE0FFF7BC
:1018CC0015FB02463B69D31A41F28832934201D987
:1018DC0003239BE0404B1B6A03F00203002BEED169
:1018EC00FB7D012B05D13C4BDB693B4A23F080533C
:1018FC00D3617B68DB69002B00F08780364B5B681B
:10190C0003F00C03082B61D07B68DB69022B46D1FA
:10191C00334B00221A60FFF7E9FA386108E0FFF751
:10192C00E5FA02463B69D31A022B01D903236DE079
:10193C00294B1B6803F00073002BF0D17B681B6AEA
:10194C00B3F5803F08D1244B5B6823F400327B68ED
:10195C009B68214913434B601F4B5B6823F4741243
:10196C007B68196A7B685B6A0B431B4913434B60AA
:10197C001B4B01221A60FFF7B9FA386108E0FFF738
:10198C00B5FA02463B69D31A022B01D903233DE079
:10199C00114B1B6803F00073002BF0D035E0104B9B
:1019AC0000221A60FFF7A2FA386108E0FFF79EFAEE
:1019BC0002463B69D31A022B01D9032326E0064BBE
:1019CC001B6803F00073002BF0D11EE07B68DB6911
:1019DC00012B07D1012319E00010024000700040D8
:1019EC00600042420B4B5B68FB60FB6803F4803287
:1019FC007B681B6A9A4206D1FB6803F470127B6801
:101A0C005B6A9A4201D0012300E000231846183784
:101A1C00BD4680BD0010024080B584B000AF786038
:101A2C0039607B68002B01D10123D0E06A4B1B6825
:101A3C0003F007033A689A4210D9674B1B6823F0EE
:101A4C00070265493B6813430B60634B1B6803F04B
:101A5C0007033A689A4201D00123B8E07B681B68FF
:101A6C0003F00203002B20D07B681B6803F00403F7
:101A7C00002B05D0594B5B68584A43F4E063536024
:101A8C007B681B6803F00803002B05D0534B5B6885
:101A9C00524A43F460535360504B5B6823F0F0029E
:101AAC007B689B684D4913434B607B681B6803F054
:101ABC000103002B40D07B685B68012B07D1474B9F
:101ACC001B6803F40033002B15D101237FE07B68E6
:101ADC005B68022B07D1414B1B6803F00073002B92
:101AEC0009D1012373E03D4B1B6803F00203002B6B
:101AFC0001D101236BE0394B5B6823F003027B6857
:101B0C005B68364913434B60FFF7F0F9F8600AE065
:101B1C00FFF7ECF90246FB68D31A41F28832934284
:101B2C0001D9032353E02D4B5B6803F00C027B6857
:101B3C005B689B009A42EBD1274B1B6803F00703B1
:101B4C003A689A4210D2244B1B6823F007022249B0
:101B5C003B6813430B60204B1B6803F007033A6888
:101B6C009A4201D0012332E07B681B6803F0040326
:101B7C00002B08D0194B5B6823F4E0627B68DB68B0
:101B8C00164913434B607B681B6803F00803002B5A
:101B9C0009D0124B5B6823F460527B681B69DB0035
:101BAC000E4913434B6000F021F802460B4B5B6867
:101BBC001B0903F00F030A49CB5C22FA03F3094A11
:101BCC001360094B1B681846FFF74EF900231846A3
:101BDC001037BD4680BD00BF0020024000100240FF
:101BEC0028250008280000202C00002080B487B095
:101BFC0000AF0023FB600023BB6000237B6100234C
:101C0C007B6000233B611E4B5B68FB60FB6803F051
:101C1C000C03042B02D0082B03D027E0194B3B619B
:101C2C0027E0FB689B0C03F00F03174AD35C7B6027
:101C3C00FB6803F48033002B10D0114B5B685B0CFA
:101C4C0003F00103114AD35CBB607B680D4A03FBB4
:101C5C0002F2BB68B2FBF3F37B6104E07B680C4AD5
:101C6C0002FB03F37B617B693B6102E0054B3B614B
:101C7C0000BF3B6918461C37BD4680BC704700BF8F
:101C8C000010024000127A00382500084825000890
:101C9C0000093D0080B485B000AF78600A4B1B682A
:101CAC000A4AA2FB03235B0A7A6802FB03F3FB607C
:101CBC0000BFFB685A1EFA60002BF9D100BF00BFB1
:101CCC001437BD4680BC704728000020D34D6210ED
:101CDC0080B582B000AF78607B68002B01D1012306
:101CEC0041E07B6893F83D30DBB2002B06D17B687A
:101CFC00002283F83C207868FFF756F87B680222B4
:101D0C0083F83D207B681A687B68043319461046BB
:101D1C0000F06EFA7B68012283F846207B68012272
:101D2C0083F83E207B68012283F83F207B680122E8
:101D3C0083F840207B68012283F841207B680122D4
:101D4C0083F842207B68012283F843207B680122C0
:101D5C0083F844207B68012283F845207B680122AC
:101D6C0083F83D20002318460837BD4680BD00008F
:101D7C0080B485B000AF78607B6893F83D30DBB2FF
:101D8C00012B01D0012335E07B68022283F83D2032
:101D9C007B681B68DA687B681B6842F00102DA60BA
:101DAC007B681B68164A934209D07B681B68B3F1A9
:101DBC00804F04D07B681B68124A934211D17B6818
:101DCC001B689B6803F00703FB60FB68062B10D0B5
:101DDC007B681B681A687B681B6842F001021A60FA
:101DEC0007E07B681B681A687B681B6842F001027D
:101DFC001A60002318461437BD4680BC704700BFDC
:101E0C00002C01400004004080B582B000AF786027
:101E1C007B681B681B6903F00203022B22D17B68D1
:101E2C001B68DB6803F00203022B1BD17B681B6869
:101E3C006FF002021A617B6801221A777B681B68BB
:101E4C009B6903F00303002B03D0786800F0B4F90E
:101E5C0005E0786800F0A7F9786800F0B6F97B68BF
:101E6C0000221A777B681B681B6903F00403042BA0
:101E7C0022D17B681B68DB6803F00403042B1BD1A5
:101E8C007B681B686FF004021A617B6802221A7768
:101E9C007B681B689B6903F44073002B03D0786844
:101EAC0000F08AF905E0786800F07DF9786800F0B8
:101EBC008CF97B6800221A777B681B681B6903F01E
:101ECC000803082B22D17B681B68DB6803F008032E
:101EDC00082B1BD17B681B686FF008021A617B68AA
:101EEC0004221A777B681B68DB6903F00303002B61
:101EFC0003D0786800F060F905E0786800F053F9D9
:101F0C00786800F062F97B6800221A777B681B689E
:101F1C001B6903F01003102B22D17B681B68DB6854
:101F2C0003F01003102B1BD17B681B686FF01002A1
:101F3C001A617B6808221A777B681B68DB6903F4DB
:101F4C004073002B03D0786800F036F905E0786810
:101F5C0000F029F9786800F038F97B6800221A77CC
:101F6C007B681B681B6903F00103012B0ED17B6896
:101F7C001B68DB6803F00103012B07D17B681B682E
:101F8C006FF001021A617868FEF743FE7B681B68EC
:101F9C001B6903F08003802B0ED17B681B68DB6808
:101FAC0003F08003802B07D17B681B686FF08002E5
:101FBC001A61786800F06BFA7B681B681B6903F088
:101FCC004003402B0ED17B681B68DB6803F0400399
:101FDC00402B07D17B681B686FF040021A61786850
:101FEC0000F0FCF87B681B681B6903F02003202BB6
:101FFC000ED17B681B68DB6803F02003202B07D114
:10200C007B681B686FF020021A61786800F036FA62
:10201C0000BF0837BD4680BD80B584B000AF786086
:10202C0039600023FB737B6893F83C30012B01D1A2
:10203C000223B4E07B68012283F83C207B680222F7
:10204C0083F83D207B681B689B68BB60BB6823F0F2
:10205C007703BB60BB6823F47F43BB607B681B6862
:10206C00BA689A603B681B68B3F5005F3ED0B3F565
:10207C00005F00F28780B3F5805F00F08680B3F5D7
:10208C00805F7FD8702B1AD0702B7BD8602B50D0F0
:10209C00602B77D8502B3CD0502B73D8402B58D07A
:1020AC00402B6FD8302B64D0302B6BD8202B60D0CA
:1020BC00202B67D8002B5CD0102B5AD062E07B68A9
:1020CC0018683B6899683B685A683B68DB6800F0A5
:1020DC005EF97B681B689B68BB60BB6843F0770349
:1020EC00BB607B681B68BA689A604FE07B681868B5
:1020FC003B6899683B685A683B68DB6800F047F9B5
:10210C007B681B689A687B681B6842F480429A6003
:10211C003CE07B6818683B6859683B68DB681A468A
:10212C0000F0BEF87B681B685021184600F015F9CA
:10213C002CE07B6818683B6859683B68DB681A467A
:10214C0000F0DCF87B681B686021184600F005F98C
:10215C001CE07B6818683B6859683B68DB681A466A
:10216C0000F09EF87B681B684021184600F0F5F8DB
:10217C000CE07B681A683B681B681946104600F037
:10218C00ECF803E00123FB7300E000BF7B68012245
:10219C0083F83D207B68002283F83C20FB7B1846AB
:1021AC001037BD4680BD80B483B000AF786000BFEF
:1021BC000C37BD4680BC704780B483B000AF7860EC
:1021CC0000BF0C37BD4680BC704780B483B000AFF5
:1021DC00786000BF0C37BD4680BC704780B483B0BC
:1021EC0000AF786000BF0C37BD4680BC7047000064
:1021FC0080B485B000AF786039607B681B68FB6089
:10220C007B68254A934207D07B68B3F1804F03D09B
:10221C007B68224A934208D1FB6823F07003FB6071
:10222C003B685B68FA681343FB607B681A4A93420D
:10223C0007D07B68B3F1804F03D07B68174A934279
:10224C0008D1FB6823F44073FB603B68DB68FA68D9
:10225C001343FB60FB6823F080023B685B6913430C
:10226C00FB607B68FA681A603B689A687B68DA6284
:10227C003B681A687B689A627B68074A934203D171
:10228C003B681A697B681A637B6801225A6100BF3C
:10229C001437BD4680BC7047002C01400004004040
:1022AC0080B487B000AFF860B9607A60FB681B6AD5
:1022BC007B61FB681B6A23F00102FB681A62FB68F6
:1022CC009B693B613B6923F0F0033B617B681B011D
:1022DC003A6913433B617B6923F00A037B617A699A
:1022EC00BB6813437B61FB683A699A61FB687A6946
:1022FC001A6200BF1C37BD4680BC704780B487B0E3
:10230C0000AFF860B9607A60FB681B6A7B61FB68A0
:10231C001B6A23F01002FB681A62FB689B693B6125
:10232C003B6923F470433B617B681B033A6913439D
:10233C003B617B6923F0A0037B61BB681B017A695D
:10234C0013437B61FB683A699A61FB687A691A628C
:10235C0000BF1C37BD4680BC704780B485B000AF51
:10236C00786039607B689B68FB60FB6823F07003C6
:10237C00FB603A68FB68134343F00703FB607B6820
:10238C00FA689A6000BF1437BD4680BC704780B4B1
:10239C0087B000AFF860B9607A603B60FB689B68FF
:1023AC007B617B6923F47F437B613B681A027B680A
:1023BC001A43BB6813437A6913437B61FB687A69E0
:1023CC009A6000BF1C37BD4680BC704780B485B096
:1023DC0000AF786039607B6893F83C30012B01D1F9
:1023EC00022341E07B68012283F83C207B680222B7
:1023FC0083F83D207B681B685B68FB607B681B680F
:10240C009B68BB60FB6823F07003FB603B681B6838
:10241C00FA681343FB607B681B68FA685A607B6838
:10242C001B68144A934209D07B681B68B3F1804F38
:10243C0004D07B681B68104A93420CD1BB6823F014
:10244C008003BB603B685B68BA681343BB607B6806
:10245C001B68BA689A607B68012283F83D207B6810
:10246C00002283F83C20002318461437BD4680BC5C
:10247C00704700BF002C01400004004080B483B0C2
:10248C0000AF786000BF0C37BD4680BC704780B48D
:10249C0083B000AF786000BF0C37BD4680BC70477E
:1024AC0070B500260C4D0D4C641BA410A64209D12E
:1024BC0000F022F800260A4D0A4C641BA410A64218
:1024CC0005D170BD55F8043B98470136EEE755F839
:1024DC00043B98470136F2E74C2500084C250008D0
:1024EC004C2500085025000803460244934200D1B5
:1024FC00704703F8011BF9E7F8B500BFF8BC08BC3E
:10250C009E467047F8B500BFF8BC08BC9E467047A5
:10251C003F065B4F666D7D077F6F0000000000007B
:10252C000000000001020304060708090203040569
:10253C00060708090A0B0C0D0E0F10100102000003
:04254C003101000851
:042550000D01000871
:102554000001000009090008010200001509000833
:102564000204010021090008030803002D090008E2
:1025740004080700410900080024F40010000000CA
:042584000100000052
:0400000508000DFDE5
:00000001FF
